:020000040800F2
:1000000000500020F90300084104000841040008E2
:1000100041040008410400084104000800000000F9
:100020000000000000000000000000004104000883
:10003000410400080000000041040008E503000836
:10004000410400084104000841040008410400087C
:10005000410400084104000841040008410400086C
:10006000410400084104000841040008410400085C
:10007000410400084104000841040008410400084C
:10008000410400084104000841040008410400083C
:10009000410400084104000841040008410400082C
:1000A000410400084104000841040008410400081C
:1000B000410400084104000841040008410400080C
:1000C00041040008410400084104000841040008FC
:1000D00041040008410400084104000841040008EC
:1000E0004104000841040008410400080000000029
:1000F0000000000000000000000000000000000000
:0C01000000000000000000005FF808F1A3
:10010C0010B5054C237833B9044B13B10448AFF345
:10011C0000800123237010BD30040020000000007B
:10012C004404000808B5034B1BB103490348AFF363
:10013C00008008BD000000003404002044040008C6
:10014C00002301461A46184600F03AB838B5084B59
:10015C00084D5B1B9C1007D0043B1D44013C55F81B
:10016C0004399847002CF9D1BDE8384000F06AB941
:10017C006C0400086804000870B50D4E0D4D761B1C
:10018C00B61006D0002455F8043B01349847A6421B
:10019C00F9D1094E094D00F04FF9761BB61006D077
:1001AC00002455F8043B01349847A642F9D170BDA0
:1001BC00600400086004000868040008600400087B
:1001CC002DE9F8431D4D0646286898460F46914682
:1001DC0000F042F81A4B1B68D3F848411CB328684E
:1001EC0065681F2D24DC4EB96B1C0235636044F826
:1001FC00257000F033F80020BDE8F883012304EBF0
:10020C008501C1F88890D4F88821AB401A43022E9E
:10021C00C4F88821C1F80881E6D1D4F88C211343A5
:10022C00C4F88C31E0E703F5A674C3F84841D6E76F
:10023C0000F014F84FF0FF30DEE700BF2804002078
:10024C005C040008024B13B10248FFF779BF7047FA
:10025C000000000059010008704700BF704700BF44
:10026C00034A116813685B1A8342FBD3704700BFC3
:10027C0050040020154B1A6842F001021A601A68EB
:10028C009007FCD51A6822F0F80242F080021A603E
:10029C0000225A605A6812F00C0FFBD11A6822F037
:1002AC0080721A601A689101FCD41A6822F4102228
:1002BC001A601A689203FCD41A6822F480221A601D
:1002CC005A6A42F080725A62704700BF00100240B6
:1002DC001E4B1A6842F480321A601A689103FCD5DE
:1002EC001B4A116821F010011160116841F01001D6
:1002FC001160116821F0070141F0040111605A6886
:10030C0022F0F0025A605A6822F460525A605A681D
:10031C0022F4E06242F480625A605A6822F47C1241
:10032C0042F4E8125A601A6842F080721A601A6835
:10033C009201FCD55A6822F0030242F002025A6084
:10034C005A6802F00C02082AFAD1704700100240D9
:10035C0000200240064A936943F004039361A2F51E
:10036C008432136823F0F00343F0300313607047BA
:10037C000010024008B5FFF77DFFFFF7A9FF4FF40F
:10038C007A72124B1B68B3FBF2F3013BB3F1807F23
:10039C000AD24FF0E022F02153610D4B83F8231069
:1003AC000023936107231361FFF7D4FF094C2369E2
:1003BC004FF4967043F400332361FFF751FF236928
:1003CC0043F002032361FFF74BFFF0E72C040020FE
:1003DC0000ED00E000080140024A1368013313608D
:1003EC00704700BF50040020704700000C480D49B6
:1003FC000D4A002302E0D458C4500433C4188C4274
:10040C00F9D30A4A0A4C002301E013600432A242D9
:10041C00FBD3FFF7E9FFFFF7AFFEFFF7ABFF70472A
:10042C0000000020300400206C0400083004002080
:10043C0054040020FEE70000F8B500BFF8BC08BC6F
:10044C009E467047F8B500BFF8BC08BC9E46704786
:04045C00000000207C
:080460005102000831010008FF
:040468000D0100087A
:10046C0000000000EC02002054030020BC0300201C
:10047C000000000000000000000000000000000070
:10048C000000000000000000000000000000000060
:10049C000000000000000000000000000000000050
:1004AC000000000000000000000000000000000040
:1004BC000000000000000000000000000000000030
:1004CC000000000000000000000000000000000020
:1004DC000000000000000000000000000000000010
:1004EC000000000000000000000000000000000000
:1004FC0000000000000000000000000000000000F0
:10050C0000000000000000000100000000000000DE
:10051C000E33CDAB34126DE6ECDE05000B000000A3
:10052C0000000000000000000000000000000000BF
:10053C0000000000000000000000000000000000AF
:10054C00000000000000000000000000000000009F
:10055C00000000000000000000000000000000008F
:10088C0000000000000000004C0400200024F400D4
:04000005080003F9F3
:00000001FF
