:020000040800F2
:1000000000500020350600087D0600087D06000827
:100010007D0600087D0600087D060008000000003F
:100020000000000000000000000000007D06000845
:100030007D060008000000007D0600082905000874
:100040007D0600087D0600087D0600087D06000884
:100050007D0600087D0600087D0600087D06000874
:100060007D0600087D0600087D0600087D06000864
:100070007D0600087D0600087D0600087D06000854
:100080007D0600087D0600087D0600087D06000844
:100090007D0600087D0600087D0600087D06000834
:1000A0007D0600087D0600087D0600087D06000824
:1000B0007D0600087D0600087D0600087D06000814
:1000C0007D0600087D0600087D0600087D06000804
:1000D0007D0600087D0600087D0600087D060008F4
:1000E0007D0600087D0600087D060008000000006F
:1000F0000000000000000000000000000000000000
:0C01000000000000000000005FF808F1A3
:10010C0010B5054C237833B9044B13B10448AFF345
:10011C0000800123237010BD30040020000000007B
:10012C008006000808B5034B1BB103490348AFF325
:10013C00008008BD00000000340400208006000888
:10014C00002301461A46184600F03AB838B5084B59
:10015C00084D5B1B9C1007D0043B1D44013C55F81B
:10016C0004399847002CF9D1BDE8384000F088BA22
:10017C00B8060008B406000870B50D4E0D4D761B80
:10018C00B61006D0002455F8043B01349847A6421B
:10019C00F9D1094E094D00F06DFA761BB61006D058
:1001AC00002455F8043B01349847A642F9D170BDA0
:1001BC00AC060008AC060008B4060008AC06000843
:1001CC002DE9F8431D4D0646286898460F46914682
:1001DC0000F042F81A4B1B68D3F848411CB328684E
:1001EC0065681F2D24DC4EB96B1C0235636044F826
:1001FC00257000F033F80020BDE8F883012304EBF0
:10020C008501C1F88890D4F88821AB401A43022E9E
:10021C00C4F88821C1F80881E6D1D4F88C211343A5
:10022C00C4F88C31E0E703F5A674C3F84841D6E76F
:10023C0000F014F84FF0FF30DEE700BF2804002078
:10024C0098060008024B13B10248FFF779BF7047BC
:10025C000000000059010008704700BF704700BF44
:10026C0080B483B000AF03463960FB7197F9073057
:10027C00002B0ADB3B68DAB20C4997F90730120104
:10028C00D2B20B4483F800230AE03B68DAB2084987
:10029C00FB7903F00F03043B1201D2B20B441A7624
:1002AC0000BF0C37BD4680BC704700BF00E100E0CA
:1002BC0000ED00E080B582B000AF78607B68013B58
:1002CC00B3F1807F01D301230FE00A4A7B68013B25
:1002DC0053600F214FF0FF30FFF7C2FF054B002298
:1002EC009A60044B07221A60002318460837BD4653
:1002FC0080BD00BF10E000E080B485B000AF786036
:10030C00084B1B68FB6000BF064B1A68FB68D31ACE
:10031C007A689A42F8D800BF00BF1437BD4680BC3B
:10032C00704700BF5004002080B400AF244B1B6802
:10033C00234A43F00103136000BF214B1B6803F0F9
:10034C000203002BF9D01E4B1B6823F0F8031C4A48
:10035C0043F0800313601A4B00225A6000BF184B05
:10036C005B6803F00C03002BF9D1154B1B68144A86
:10037C0023F08073136000BF114B1B6803F00073F4
:10038C00002BF9D10E4B1B680D4A23F4102313607C
:10039C0000BF0B4B1B6803F40033002BF9D1084B47
:1003AC001B68074A23F480231360054B5B6A044ADD
:1003BC0043F08073536200BFBD4680BC704700BFE2
:1003CC000010024080B400AF2F4B1B682E4A43F440
:1003DC008033136000BF2C4B1B6803F40033002BDD
:1003EC00F9D02A4B1B68294A23F010031360274BC2
:1003FC001B68264A43F010031360244B1B6823F040
:10040C000703224A43F0040313601F4B5B681E4A28
:10041C0023F0F00353601C4B5B681B4A23F46053BE
:10042C005360194B5B6823F4E063174A43F4806311
:10043C005360154B5B6823F47C13134A43F4E813A5
:10044C005360114B1B68104A43F08073136000BF5C
:10045C000D4B1B6803F00073B3F1007FF8D10A4B0E
:10046C005B6823F00303084A43F00203536000BFA8
:10047C00054B5B6803F00C03082BF9D100BF00BFE0
:10048C00BD4680BC704700BF0010024000200240F7
:10049C0080B400AF084B9B69074A43F00403936197
:1004AC00064B1B6823F0F003044A43F0300313603F
:1004BC0000BFBD4680BC70470010024000080140E0
:1004CC0080B500AFFFF730FFFFF77CFF00F03AF884
:1004DC000F4B1B680F4AA2FB03239B091846FFF71F
:1004EC00E9FEFFF7D5FF0C4B1B690B4A43F40033B5
:1004FC0013614FF47A70FFF7FFFE074B1B69064A36
:10050C0043F0020313614FF47A70FFF7F5FEEAE74C
:10051C002C040020D34D62100008014080B400AFC1
:10052C00044B1B680133034A136000BFBD4680BCFB
:10053C00704700BF5004002080B400AF00BFBD4620
:10054C0080BC704780B485B000AF0023FB600023F3
:10055C00BB6000237B602F4B5B6803F00C03FB60DC
:10056C00FB68082B11D0FB68082B3AD8FB68002BD2
:10057C0003D0FB68042B04D033E0274B274A1A60C6
:10058C0033E0254B254A1A602FE0224B5B6803F4BD
:10059C007013BB601F4B5B6803F480337B60BB68DC
:1005AC009B0C0233BB607B68002B06D1BB681C4ADA
:1005BC0002FB03F3184A136017E0164B5B6803F455
:1005CC000033002B06D0BB68154A02FB03F3124A1A
:1005DC0013600AE0BB68114A02FB03F30E4A136076
:1005EC0003E00D4B0D4A1A6000BF0A4B5B681B09F8
:1005FC0003F00F030B4AD35CFB60074B1A68FB68D4
:10060C0022FA03F3044A136000BF1437BD4680BCC2
:10061C00704700BF001002402C04002000127A002A
:10062C0000093D009C0600080C480D490D4A0023AA
:10063C0002E0D458C4500433C4188C42F9D30A4A8B
:10064C000A4C002301E013600432A242FBD3FFF7F3
:10065C0073FFFFF791FDFFF733FF70470000002099
:10066C0030040020B8060008300400205404002098
:10067C00FEE70000F8B500BFF8BC08BC9E4670470A
:0C068C00F8B500BFF8BC08BC9E467047E3
:100698000000002000000000000000000102030428
:0406A8000607080930
:0806AC005102000831010008B1
:0406B4000D0100082C
:1006B80000000000EC02002054030020BC030020CE
:1006C8000000000000000000000000000000000022
:1006D8000000000000000000000000000000000012
:1006E8000000000000000000000000000000000002
:1006F80000000000000000000000000000000000F2
:1007080000000000000000000000000000000000E1
:1007180000000000000000000000000000000000D1
:1007280000000000000000000000000000000000C1
:1007380000000000000000000000000000000000B1
:1007480000000000000000000000000000000000A1
:100758000000000000000000010000000000000090
:100768000E33CDAB34126DE6ECDE05000B00000055
:100778000000000000000000000000000000000071
:100788000000000000000000000000000000000061
:100798000000000000000000000000000000000051
:1007A8000000000000000000000000000000000041
:100AD80000000000000000004C0400200024F40086
:0400000508000635B4
:00000001FF
